:100000000C9434000C943E000C943E000C943E0082
:100010000C943E000C943E000C943E000C943E0068
:100020000C943E000C943E000C943E000C943E0058
:100030000C943E000C943E000C943E000C943E0048
:100040000C943E000C943E000C943E000C943E0038
:100050000C943E000C943E000C943E000C943E0028
:100060000C943E000C943E0011241FBECFEFD8E04C
:10007000DEBFCDBF0E944D000C9465000C940000C3
:1000800016BCA89A90E080E0A89BFECFA89A0196A3
:10009000813D23E09207C1F70895569A14BC15BC20
:1000A00016BC84B5836884BD85B5836085BDA89A78
:1000B000C0E0C7BD0E944000CF5FCF3FD1F7C7BDB2
:0E00C0000E944000C150D9F7F3CFF894FFCF53
:00000001FF
